{
    "contractName": "Bank",
    "abi": [
        {
            "anonymous": false,
            "inputs": [
                {
                    "indexed": true,
                    "internalType": "address",
                    "name": "user",
                    "type": "address"
                },
                {
                    "indexed": false,
                    "internalType": "uint256",
                    "name": "amount",
                    "type": "uint256"
                }
            ],
            "name": "Deposit",
            "type": "event"
        },
        {
            "inputs": [
                {
                    "internalType": "address",
                    "name": "",
                    "type": "address"
                }
            ],
            "name": "balanceOf",
            "outputs": [
                {
                    "internalType": "uint256",
                    "name": "",
                    "type": "uint256"
                }
            ],
            "stateMutability": "view",
            "type": "function"
        },
        {
            "inputs": [],
            "name": "depositETH",
            "outputs": [],
            "stateMutability": "payable",
            "type": "function"
        }
    ],
    "bytecode": "6080604052348015600e575f80fd5b506101b68061001c5f395ff3fe608060405260043610610028575f3560e01c806370a082311461002c578063f6326fb314610069575b5f80fd5b348015610037575f80fd5b5061005761004636600461012e565b5f6020819052908152604090205481565b60405190815260200160405180910390f35b610071610073565b005b5f34116100d45760405162461bcd60e51b815260206004820152602560248201527f4465706f73697420616d6f756e74206d75737420626520677265617465722074604482015264068616e20360dc1b606482015260840160405180910390fd5b335f90815260208190526040812080543492906100f290849061015b565b909155505060405134815233907fe1fffcc4923d04b559f4d29a8bfc6cda04eb5b0d3c460751c2402c5c5cc9109c9060200160405180910390a2565b5f6020828403121561013e575f80fd5b81356001600160a01b0381168114610154575f80fd5b9392505050565b8082018082111561017a57634e487b7160e01b5f52601160045260245ffd5b9291505056fea264697066735822122090d0be967fc2ed70813241f0c8a40c13223def8cfcf51bbdb494f59712e3860864736f6c634300081a0033",
    "sourcePath": "/Users/rock/git/hello-foundry/src/Bank.sol",
    "compiler": {
        "name": "solc",
        "version": "0.8.26+commit.8a97fa7a"
    },
    "functionHashes": {
        "balanceOf(address)": "70a08231",
        "depositETH()": "f6326fb3"
    },
    "gasEstimates": {
        "creation": {
            "codeDepositCost": "87600",
            "executionCost": "133",
            "totalCost": "87733"
        },
        "external": {
            "balanceOf(address)": "2450",
            "depositETH()": "25948"
        }
    }
}