{
    "contractName": "RockToken",
    "abi": [
        {
            "inputs": [],
            "stateMutability": "nonpayable",
            "type": "constructor"
        },
        {
            "inputs": [
                {
                    "internalType": "address",
                    "name": "spender",
                    "type": "address"
                },
                {
                    "internalType": "uint256",
                    "name": "allowance",
                    "type": "uint256"
                },
                {
                    "internalType": "uint256",
                    "name": "needed",
                    "type": "uint256"
                }
            ],
            "name": "ERC20InsufficientAllowance",
            "type": "error"
        },
        {
            "inputs": [
                {
                    "internalType": "address",
                    "name": "sender",
                    "type": "address"
                },
                {
                    "internalType": "uint256",
                    "name": "balance",
                    "type": "uint256"
                },
                {
                    "internalType": "uint256",
                    "name": "needed",
                    "type": "uint256"
                }
            ],
            "name": "ERC20InsufficientBalance",
            "type": "error"
        },
        {
            "inputs": [
                {
                    "internalType": "address",
                    "name": "approver",
                    "type": "address"
                }
            ],
            "name": "ERC20InvalidApprover",
            "type": "error"
        },
        {
            "inputs": [
                {
                    "internalType": "address",
                    "name": "receiver",
                    "type": "address"
                }
            ],
            "name": "ERC20InvalidReceiver",
            "type": "error"
        },
        {
            "inputs": [
                {
                    "internalType": "address",
                    "name": "sender",
                    "type": "address"
                }
            ],
            "name": "ERC20InvalidSender",
            "type": "error"
        },
        {
            "inputs": [
                {
                    "internalType": "address",
                    "name": "spender",
                    "type": "address"
                }
            ],
            "name": "ERC20InvalidSpender",
            "type": "error"
        },
        {
            "inputs": [
                {
                    "internalType": "address",
                    "name": "to",
                    "type": "address"
                }
            ],
            "name": "ReceiveFailed",
            "type": "error"
        },
        {
            "inputs": [
                {
                    "internalType": "address",
                    "name": "to",
                    "type": "address"
                },
                {
                    "internalType": "uint256",
                    "name": "value",
                    "type": "uint256"
                }
            ],
            "name": "TransferFailed",
            "type": "error"
        },
        {
            "anonymous": false,
            "inputs": [
                {
                    "indexed": true,
                    "internalType": "address",
                    "name": "owner",
                    "type": "address"
                },
                {
                    "indexed": true,
                    "internalType": "address",
                    "name": "spender",
                    "type": "address"
                },
                {
                    "indexed": false,
                    "internalType": "uint256",
                    "name": "value",
                    "type": "uint256"
                }
            ],
            "name": "Approval",
            "type": "event"
        },
        {
            "anonymous": false,
            "inputs": [
                {
                    "indexed": true,
                    "internalType": "address",
                    "name": "from",
                    "type": "address"
                },
                {
                    "indexed": true,
                    "internalType": "address",
                    "name": "to",
                    "type": "address"
                },
                {
                    "indexed": false,
                    "internalType": "uint256",
                    "name": "value",
                    "type": "uint256"
                }
            ],
            "name": "Transfer",
            "type": "event"
        },
        {
            "inputs": [
                {
                    "internalType": "address",
                    "name": "owner",
                    "type": "address"
                },
                {
                    "internalType": "address",
                    "name": "spender",
                    "type": "address"
                }
            ],
            "name": "allowance",
            "outputs": [
                {
                    "internalType": "uint256",
                    "name": "",
                    "type": "uint256"
                }
            ],
            "stateMutability": "view",
            "type": "function"
        },
        {
            "inputs": [
                {
                    "internalType": "address",
                    "name": "spender",
                    "type": "address"
                },
                {
                    "internalType": "uint256",
                    "name": "value",
                    "type": "uint256"
                }
            ],
            "name": "approve",
            "outputs": [
                {
                    "internalType": "bool",
                    "name": "",
                    "type": "bool"
                }
            ],
            "stateMutability": "nonpayable",
            "type": "function"
        },
        {
            "inputs": [
                {
                    "internalType": "address",
                    "name": "account",
                    "type": "address"
                }
            ],
            "name": "balanceOf",
            "outputs": [
                {
                    "internalType": "uint256",
                    "name": "",
                    "type": "uint256"
                }
            ],
            "stateMutability": "view",
            "type": "function"
        },
        {
            "inputs": [],
            "name": "decimals",
            "outputs": [
                {
                    "internalType": "uint8",
                    "name": "",
                    "type": "uint8"
                }
            ],
            "stateMutability": "view",
            "type": "function"
        },
        {
            "inputs": [],
            "name": "mint",
            "outputs": [],
            "stateMutability": "nonpayable",
            "type": "function"
        },
        {
            "inputs": [],
            "name": "name",
            "outputs": [
                {
                    "internalType": "string",
                    "name": "",
                    "type": "string"
                }
            ],
            "stateMutability": "view",
            "type": "function"
        },
        {
            "inputs": [],
            "name": "symbol",
            "outputs": [
                {
                    "internalType": "string",
                    "name": "",
                    "type": "string"
                }
            ],
            "stateMutability": "view",
            "type": "function"
        },
        {
            "inputs": [],
            "name": "totalSupply",
            "outputs": [
                {
                    "internalType": "uint256",
                    "name": "",
                    "type": "uint256"
                }
            ],
            "stateMutability": "view",
            "type": "function"
        },
        {
            "inputs": [
                {
                    "internalType": "address",
                    "name": "to",
                    "type": "address"
                },
                {
                    "internalType": "uint256",
                    "name": "value",
                    "type": "uint256"
                }
            ],
            "name": "transfer",
            "outputs": [
                {
                    "internalType": "bool",
                    "name": "",
                    "type": "bool"
                }
            ],
            "stateMutability": "nonpayable",
            "type": "function"
        },
        {
            "inputs": [
                {
                    "internalType": "address",
                    "name": "to",
                    "type": "address"
                },
                {
                    "internalType": "uint256",
                    "name": "value",
                    "type": "uint256"
                },
                {
                    "internalType": "bytes",
                    "name": "data",
                    "type": "bytes"
                }
            ],
            "name": "transferAndCall",
            "outputs": [
                {
                    "internalType": "bool",
                    "name": "",
                    "type": "bool"
                }
            ],
            "stateMutability": "nonpayable",
            "type": "function"
        },
        {
            "inputs": [
                {
                    "internalType": "address",
                    "name": "from",
                    "type": "address"
                },
                {
                    "internalType": "address",
                    "name": "to",
                    "type": "address"
                },
                {
                    "internalType": "uint256",
                    "name": "value",
                    "type": "uint256"
                }
            ],
            "name": "transferFrom",
            "outputs": [
                {
                    "internalType": "bool",
                    "name": "",
                    "type": "bool"
                }
            ],
            "stateMutability": "nonpayable",
            "type": "function"
        }
    ],
    "bytecode": "608060405234801561000f575f80fd5b50604051806040016040528060098152602001682937b1b5aa37b5b2b760b91b815250604051806040016040528060018152602001602960f91b815250816003908161005b919061010a565b506004610068828261010a565b5050506101c5565b634e487b7160e01b5f52604160045260245ffd5b600181811c9082168061009857607f821691505b6020821081036100b657634e487b7160e01b5f52602260045260245ffd5b50919050565b601f821115610105575f81815260208120601f850160051c810160208610156100e25750805b601f850160051c820191505b81811015610101578281556001016100ee565b5050505b505050565b81516001600160401b0381111561012357610123610070565b610137816101318454610084565b846100bc565b602080601f83116001811461016a575f84156101535750858301515b5f19600386901b1c1916600185901b178555610101565b5f85815260208120601f198616915b8281101561019857888601518255948401946001909101908401610179565b50858210156101b557878501515f19600388901b60f8161c191681555b5050505050600190811b01905550565b6107f4806101d25f395ff3fe608060405234801561000f575f80fd5b50600436106100a6575f3560e01c8063313ce5671161006e578063313ce5671461011a5780634000aea01461012957806370a082311461014057806395d89b4114610168578063a9059cbb14610170578063dd62ed3e14610183575f80fd5b806306fdde03146100aa578063095ea7b3146100c85780631249c58b146100eb57806318160ddd146100f557806323b872dd14610107575b5f80fd5b6100b26101bb565b6040516100bf91906105cf565b60405180910390f35b6100db6100d6366004610635565b61024b565b60405190151581526020016100bf565b6100f3610264565b005b6002545b6040519081526020016100bf565b6100db61011536600461065d565b610271565b604051601281526020016100bf565b6100db610137366004610696565b5f949350505050565b6100f961014e366004610716565b6001600160a01b03165f9081526020819052604090205490565b6100b2610294565b6100db61017e366004610635565b6102a3565b6100f9610191366004610736565b6001600160a01b039182165f90815260016020908152604080832093909416825291909152205490565b6060600380546101ca90610767565b80601f01602080910402602001604051908101604052809291908181526020018280546101f690610767565b80156102415780601f1061021857610100808354040283529160200191610241565b820191905f5260205f20905b81548152906001019060200180831161022457829003601f168201915b5050505050905090565b5f336102588185856102b0565b60019150505b92915050565b61026f3360b46102c2565b565b5f3361027e8582856102ff565b61028985858561037a565b506001949350505050565b6060600480546101ca90610767565b5f3361025881858561037a565b6102bd83838360016103d7565b505050565b6001600160a01b0382166102f05760405163ec442f0560e01b81525f60048201526024015b60405180910390fd5b6102fb5f83836104a9565b5050565b6001600160a01b038381165f908152600160209081526040808320938616835292905220545f198114610374578181101561036657604051637dc7a0d960e11b81526001600160a01b038416600482015260248101829052604481018390526064016102e7565b61037484848484035f6103d7565b50505050565b6001600160a01b0383166103a357604051634b637e8f60e11b81525f60048201526024016102e7565b6001600160a01b0382166103cc5760405163ec442f0560e01b81525f60048201526024016102e7565b6102bd8383836104a9565b6001600160a01b0384166104005760405163e602df0560e01b81525f60048201526024016102e7565b6001600160a01b03831661042957604051634a1406b160e11b81525f60048201526024016102e7565b6001600160a01b038085165f908152600160209081526040808320938716835292905220829055801561037457826001600160a01b0316846001600160a01b03167f8c5be1e5ebec7d5bd14f71427d1e84f3dd0314c0f7b2291e5b200ac8c7c3b9258460405161049b91815260200190565b60405180910390a350505050565b6001600160a01b0383166104d3578060025f8282546104c8919061079f565b909155506105439050565b6001600160a01b0383165f90815260208190526040902054818110156105255760405163391434e360e21b81526001600160a01b038516600482015260248101829052604481018390526064016102e7565b6001600160a01b0384165f9081526020819052604090209082900390555b6001600160a01b03821661055f5760028054829003905561057d565b6001600160a01b0382165f9081526020819052604090208054820190555b816001600160a01b0316836001600160a01b03167fddf252ad1be2c89b69c2b068fc378daa952ba7f163c4a11628f55a4df523b3ef836040516105c291815260200190565b60405180910390a3505050565b5f6020808352835180828501525f5b818110156105fa578581018301518582016040015282016105de565b505f604082860101526040601f19601f8301168501019250505092915050565b80356001600160a01b0381168114610630575f80fd5b919050565b5f8060408385031215610646575f80fd5b61064f8361061a565b946020939093013593505050565b5f805f6060848603121561066f575f80fd5b6106788461061a565b92506106866020850161061a565b9150604084013590509250925092565b5f805f80606085870312156106a9575f80fd5b6106b28561061a565b935060208501359250604085013567ffffffffffffffff808211156106d5575f80fd5b818701915087601f8301126106e8575f80fd5b8135818111156106f6575f80fd5b886020828501011115610707575f80fd5b95989497505060200194505050565b5f60208284031215610726575f80fd5b61072f8261061a565b9392505050565b5f8060408385031215610747575f80fd5b6107508361061a565b915061075e6020840161061a565b90509250929050565b600181811c9082168061077b57607f821691505b60208210810361079957634e487b7160e01b5f52602260045260245ffd5b50919050565b8082018082111561025e57634e487b7160e01b5f52601160045260245ffdfea2646970667358221220bf0bbf786ce732680d608b0a153436c2b7a8a3a621988559ff0e0b4963cd22bb64736f6c63430008140033",
    "sourcePath": "/Users/rock/git/hello-foundry/src/RockToken.sol",
    "compiler": {
        "name": "solc",
        "version": "0.8.20+commit.a1b79de6"
    },
    "functionHashes": {
        "allowance(address,address)": "dd62ed3e",
        "approve(address,uint256)": "095ea7b3",
        "balanceOf(address)": "70a08231",
        "decimals()": "313ce567",
        "mint()": "1249c58b",
        "name()": "06fdde03",
        "symbol()": "95d89b41",
        "totalSupply()": "18160ddd",
        "transfer(address,uint256)": "a9059cbb",
        "transferAndCall(address,uint256,bytes)": "4000aea0",
        "transferFrom(address,address,uint256)": "23b872dd"
    },
    "gasEstimates": {
        "creation": {
            "codeDepositCost": "407200",
            "executionCost": "infinite",
            "totalCost": "infinite"
        },
        "external": {
            "allowance(address,address)": "infinite",
            "approve(address,uint256)": "24735",
            "balanceOf(address)": "2581",
            "decimals()": "176",
            "mint()": "50846",
            "name()": "infinite",
            "symbol()": "infinite",
            "totalSupply()": "2347",
            "transfer(address,uint256)": "51304",
            "transferAndCall(address,uint256,bytes)": "592",
            "transferFrom(address,address,uint256)": "infinite"
        }
    }
}